{
  "contractName": "PortfolioManager",
  "abi": [
    {
      "constant": false,
      "inputs": [],
      "name": "renounceOwnership",
      "outputs": [],
      "payable": false,
      "stateMutability": "nonpayable",
      "type": "function"
    },
    {
      "constant": true,
      "inputs": [],
      "name": "owner",
      "outputs": [
        {
          "name": "",
          "type": "address"
        }
      ],
      "payable": false,
      "stateMutability": "view",
      "type": "function"
    },
    {
      "constant": true,
      "inputs": [],
      "name": "isOwner",
      "outputs": [
        {
          "name": "",
          "type": "bool"
        }
      ],
      "payable": false,
      "stateMutability": "view",
      "type": "function"
    },
    {
      "constant": false,
      "inputs": [
        {
          "name": "newOwner",
          "type": "address"
        }
      ],
      "name": "transferOwnership",
      "outputs": [],
      "payable": false,
      "stateMutability": "nonpayable",
      "type": "function"
    },
    {
      "constant": true,
      "inputs": [
        {
          "name": "",
          "type": "uint256"
        }
      ],
      "name": "investments",
      "outputs": [
        {
          "name": "",
          "type": "address"
        }
      ],
      "payable": false,
      "stateMutability": "view",
      "type": "function"
    },
    {
      "inputs": [
        {
          "name": "_factory",
          "type": "address"
        }
      ],
      "payable": false,
      "stateMutability": "nonpayable",
      "type": "constructor"
    },
    {
      "payable": true,
      "stateMutability": "payable",
      "type": "fallback"
    },
    {
      "anonymous": false,
      "inputs": [
        {
          "indexed": true,
          "name": "previousOwner",
          "type": "address"
        },
        {
          "indexed": true,
          "name": "newOwner",
          "type": "address"
        }
      ],
      "name": "OwnershipTransferred",
      "type": "event"
    },
    {
      "constant": false,
      "inputs": [
        {
          "name": "_tokens",
          "type": "address[]"
        },
        {
          "name": "_percentages",
          "type": "uint8[]"
        }
      ],
      "name": "setPortfolio",
      "outputs": [],
      "payable": false,
      "stateMutability": "nonpayable",
      "type": "function"
    },
    {
      "constant": false,
      "inputs": [],
      "name": "clearPortfolio",
      "outputs": [],
      "payable": false,
      "stateMutability": "nonpayable",
      "type": "function"
    }
  ],
  "bytecode": "0x60806040526501755090cba060045534801561001a57600080fd5b5060405160208061120d8339810180604052602081101561003a57600080fd5b8101908080519060200190929190505050336000806101000a81548173ffffffffffffffffffffffffffffffffffffffff021916908373ffffffffffffffffffffffffffffffffffffffff1602179055506000809054906101000a900473ffffffffffffffffffffffffffffffffffffffff1673ffffffffffffffffffffffffffffffffffffffff16600073ffffffffffffffffffffffffffffffffffffffff167f8be0079c531659141344cd1fd0a4f28419497f9722a3daafe3b4186f6b6457e060405160405180910390a380600160006101000a81548173ffffffffffffffffffffffffffffffffffffffff021916908373ffffffffffffffffffffffffffffffffffffffff16021790555033600360006101000a81548173ffffffffffffffffffffffffffffffffffffffff021916908373ffffffffffffffffffffffffffffffffffffffff16021790555050611074806101996000396000f3fe608060405260043610610083576000357c0100000000000000000000000000000000000000000000000000000000900463ffffffff168063715018a6146104aa5780638da5cb5b146104c15780638f32d59b14610518578063ca54cf1514610547578063f2fde38b14610622578063f34c5cb014610673578063fd345c8a1461068a575b60008090505b6002805490508110156104215760006002828154811015156100a757fe5b9060005260206000200160009054906101000a900473ffffffffffffffffffffffffffffffffffffffff169050600061014e606460ff16610140600560008673ffffffffffffffffffffffffffffffffffffffff1673ffffffffffffffffffffffffffffffffffffffff16815260200190815260200160002060009054906101000a900460ff1660ff163461070590919063ffffffff16565b6107d290919063ffffffff16565b90506000600160009054906101000a900473ffffffffffffffffffffffffffffffffffffffff1673ffffffffffffffffffffffffffffffffffffffff166306f2bf62846040518263ffffffff167c0100000000000000000000000000000000000000000000000000000000028152600401808273ffffffffffffffffffffffffffffffffffffffff1673ffffffffffffffffffffffffffffffffffffffff16815260200191505060206040518083038186803b15801561020d57600080fd5b505afa158015610221573d6000803e3d6000fd5b505050506040513d602081101561023757600080fd5b81019080805190602001909291905050509050600061031d606461030f605f60ff168573ffffffffffffffffffffffffffffffffffffffff1663cd7724c3886040518263ffffffff167c01000000000000000000000000000000000000000000000000000000000281526004018082815260200191505060206040518083038186803b1580156102c657600080fd5b505afa1580156102da573d6000803e3d6000fd5b505050506040513d60208110156102f057600080fd5b810190808051906020019092919050505061070590919063ffffffff16565b6107d290919063ffffffff16565b90508173ffffffffffffffffffffffffffffffffffffffff1663ad65d76d8483600454610348610865565b6040518563ffffffff167c0100000000000000000000000000000000000000000000000000000000028152600401808481526020018381526020018273ffffffffffffffffffffffffffffffffffffffff1673ffffffffffffffffffffffffffffffffffffffff16815260200193505050506020604051808303818588803b1580156103d357600080fd5b505af11580156103e7573d6000803e3d6000fd5b50505050506040513d60208110156103fe57600080fd5b810190808051906020019092919050505050505050508080600101915050610089565b5060003073ffffffffffffffffffffffffffffffffffffffff16319050600360009054906101000a900473ffffffffffffffffffffffffffffffffffffffff1673ffffffffffffffffffffffffffffffffffffffff166108fc829081150290604051600060405180830381858888f193505050501580156104a6573d6000803e3d6000fd5b5050005b3480156104b657600080fd5b506104bf61088e565b005b3480156104cd57600080fd5b506104d6610865565b604051808273ffffffffffffffffffffffffffffffffffffffff1673ffffffffffffffffffffffffffffffffffffffff16815260200191505060405180910390f35b34801561052457600080fd5b5061052d6109c9565b604051808215151515815260200191505060405180910390f35b34801561055357600080fd5b506106206004803603604081101561056a57600080fd5b810190808035906020019064010000000081111561058757600080fd5b82018360208201111561059957600080fd5b803590602001918460208302840111640100000000831117156105bb57600080fd5b9091929391929390803590602001906401000000008111156105dc57600080fd5b8201836020820111156105ee57600080fd5b8035906020019184602083028401116401000000008311171561061057600080fd5b9091929391929390505050610a20565b005b34801561062e57600080fd5b506106716004803603602081101561064557600080fd5b81019080803573ffffffffffffffffffffffffffffffffffffffff169060200190929190505050610cea565b005b34801561067f57600080fd5b50610688610d72565b005b34801561069657600080fd5b506106c3600480360360208110156106ad57600080fd5b8101908080359060200190929190505050610e3b565b604051808273ffffffffffffffffffffffffffffffffffffffff1673ffffffffffffffffffffffffffffffffffffffff16815260200191505060405180910390f35b60008083141561071857600090506107cc565b6000828402905082848281151561072b57fe5b041415156107c7576040517f08c379a00000000000000000000000000000000000000000000000000000000081526004018080602001828103825260218152602001807f536166654d6174683a206d756c7469706c69636174696f6e206f766572666c6f81526020017f770000000000000000000000000000000000000000000000000000000000000081525060400191505060405180910390fd5b809150505b92915050565b6000808211151561084b576040517f08c379a000000000000000000000000000000000000000000000000000000000815260040180806020018281038252601a8152602001807f536166654d6174683a206469766973696f6e206279207a65726f00000000000081525060200191505060405180910390fd5b6000828481151561085857fe5b0490508091505092915050565b60008060009054906101000a900473ffffffffffffffffffffffffffffffffffffffff16905090565b6108966109c9565b151561090a576040517f08c379a00000000000000000000000000000000000000000000000000000000081526004018080602001828103825260208152602001807f4f776e61626c653a2063616c6c6572206973206e6f7420746865206f776e657281525060200191505060405180910390fd5b600073ffffffffffffffffffffffffffffffffffffffff166000809054906101000a900473ffffffffffffffffffffffffffffffffffffffff1673ffffffffffffffffffffffffffffffffffffffff167f8be0079c531659141344cd1fd0a4f28419497f9722a3daafe3b4186f6b6457e060405160405180910390a360008060006101000a81548173ffffffffffffffffffffffffffffffffffffffff021916908373ffffffffffffffffffffffffffffffffffffffff160217905550565b60008060009054906101000a900473ffffffffffffffffffffffffffffffffffffffff1673ffffffffffffffffffffffffffffffffffffffff163373ffffffffffffffffffffffffffffffffffffffff1614905090565b60008090505b84849050811015610ce35760008585838181101515610a4157fe5b9050602002013573ffffffffffffffffffffffffffffffffffffffff16905060008484848181101515610a7057fe5b9050602002013560ff169050600073ffffffffffffffffffffffffffffffffffffffff16600160009054906101000a900473ffffffffffffffffffffffffffffffffffffffff1673ffffffffffffffffffffffffffffffffffffffff166306f2bf62846040518263ffffffff167c0100000000000000000000000000000000000000000000000000000000028152600401808273ffffffffffffffffffffffffffffffffffffffff1673ffffffffffffffffffffffffffffffffffffffff16815260200191505060206040518083038186803b158015610b4f57600080fd5b505afa158015610b63573d6000803e3d6000fd5b505050506040513d6020811015610b7957600080fd5b810190808051906020019092919050505073ffffffffffffffffffffffffffffffffffffffff1614151515610c16576040517f08c379a000000000000000000000000000000000000000000000000000000000815260040180806020018281038252601a8152602001807f546f6b656e20686173206e6f2065786368616e6765207965742e00000000000081525060200191505060405180910390fd5b60028290806001815401808255809150509060018203906000526020600020016000909192909190916101000a81548173ffffffffffffffffffffffffffffffffffffffff021916908373ffffffffffffffffffffffffffffffffffffffff1602179055505080600560008473ffffffffffffffffffffffffffffffffffffffff1673ffffffffffffffffffffffffffffffffffffffff16815260200190815260200160002060006101000a81548160ff021916908360ff16021790555050508080600101915050610a26565b5050505050565b610cf26109c9565b1515610d66576040517f08c379a00000000000000000000000000000000000000000000000000000000081526004018080602001828103825260208152602001807f4f776e61626c653a2063616c6c6572206973206e6f7420746865206f776e657281525060200191505060405180910390fd5b610d6f81610e79565b50565b60008090505b6002805490508160ff161015610e2a5760006005600060028460ff16815481101515610da057fe5b9060005260206000200160009054906101000a900473ffffffffffffffffffffffffffffffffffffffff1673ffffffffffffffffffffffffffffffffffffffff1673ffffffffffffffffffffffffffffffffffffffff16815260200190815260200160002060006101000a81548160ff021916908360ff1602179055508080600101915050610d78565b5060026000610e399190611002565b565b600281815481101515610e4a57fe5b906000526020600020016000915054906101000a900473ffffffffffffffffffffffffffffffffffffffff1681565b600073ffffffffffffffffffffffffffffffffffffffff168173ffffffffffffffffffffffffffffffffffffffff1614151515610f44576040517f08c379a00000000000000000000000000000000000000000000000000000000081526004018080602001828103825260268152602001807f4f776e61626c653a206e6577206f776e657220697320746865207a65726f206181526020017f646472657373000000000000000000000000000000000000000000000000000081525060400191505060405180910390fd5b8073ffffffffffffffffffffffffffffffffffffffff166000809054906101000a900473ffffffffffffffffffffffffffffffffffffffff1673ffffffffffffffffffffffffffffffffffffffff167f8be0079c531659141344cd1fd0a4f28419497f9722a3daafe3b4186f6b6457e060405160405180910390a3806000806101000a81548173ffffffffffffffffffffffffffffffffffffffff021916908373ffffffffffffffffffffffffffffffffffffffff16021790555050565b50805460008255906000526020600020908101906110209190611023565b50565b61104591905b80821115611041576000816000905550600101611029565b5090565b9056fea165627a7a723058209111a42daefad8ee43002ca8ba46dc0e52399240de99b23f5caaa5fbba02eb2a0029",
  "source": "pragma solidity ^0.5.0;\n\nimport \"openzeppelin-solidity/contracts/ownership/Ownable.sol\";\nimport \"openzeppelin-solidity/contracts/math/SafeMath.sol\";\nimport \"./Uniswap/UniswapExchangeInterface.sol\";\nimport \"./Uniswap/UniswapFactoryInterface.sol\";\n\n\ncontract PortfolioManager is Ownable {\n    using SafeMath for uint;\n    UniswapFactoryInterface factory;\n\n    address[] public investments;\n    address payable recipient;\n    uint8 constant HUNDRED_PERCENT = 100;\n    uint8 constant SWAP_THRESHOLD = 95;\n    uint256 deadline = 1603374468000;\n    mapping(address=>uint8) percentages;\n\n    constructor(address _factory) public {\n        factory = UniswapFactoryInterface(_factory);\n        recipient = msg.sender;\n    }\n\n    function() external payable {\n        for (uint i = 0; i < investments.length; i++) {\n            address token = investments[i];\n            uint256 amountETH = msg.value.mul(percentages[token]).div(HUNDRED_PERCENT);\n            UniswapExchangeInterface exchange = UniswapExchangeInterface(factory.getExchange(token));\n            uint256 minToken = exchange.getEthToTokenInputPrice(amountETH).mul(SWAP_THRESHOLD).div(100);\n            exchange.ethToTokenTransferInput.value(amountETH)(minToken, deadline, owner());\n        }\n        uint256 remaining = address(this).balance;\n        recipient.transfer(remaining);\n    }\n\n    function setPortfolio(address[] calldata _tokens, uint8[] calldata _percentages ) external {\n        for (uint i = 0; i < _tokens.length; i++) {\n            address _token = _tokens[i];\n            uint8 _percentage = _percentages[i];\n            require(factory.getExchange(_token) != address(0), \"Token has no exchange yet.\");\n            investments.push(_token);\n            percentages[_token] = _percentage;\n        }\n    }\n\n    function clearPortfolio() public {\n        for (uint8 i = 0; i < investments.length; i++) {\n            percentages[investments[i]] = uint8(0);\n        }\n        delete investments;\n    }\n}",
  "sourcePath": "/Users/antonasso/programming/solidity/protfolio-manager/contracts/PortfolioManager.sol",
  "compiler": {
    "name": "solc",
    "version": "0.5.0+commit.1d4f565a.Emscripten.clang"
  },
  "schemaVersion": "3.0.16",
  "updatedAt": "2019-11-28T10:49:44.321Z",
  "devdoc": {
    "methods": {
      "isOwner()": {
        "details": "Returns true if the caller is the current owner."
      },
      "owner()": {
        "details": "Returns the address of the current owner."
      },
      "renounceOwnership()": {
        "details": "Leaves the contract without owner. It will not be possible to call `onlyOwner` functions anymore. Can only be called by the current owner.     * > Note: Renouncing ownership will leave the contract without an owner, thereby removing any functionality that is only available to the owner."
      },
      "transferOwnership(address)": {
        "details": "Transfers ownership of the contract to a new account (`newOwner`). Can only be called by the current owner."
      }
    }
  },
  "userdoc": {
    "methods": {}
  }
}